:100000000C9434000C9451000C9451000C94510049
:100010000C9451000C9471010C9451000C945100FB
:100020000C9451000C9451000C9451000C9451000C
:100030000C9451000C9451000C9451000C945100FC
:100040000C9464000C9451000C9451000C945100D9
:100050000C9451000C9451000C9451000C945100DC
:100060000C9451000C94510011241FBECFEFD8E026
:10007000DEBFCDBF11E0A0E0B1E0E2E4FDE002C0F0
:1000800005900D92A432B107D9F721E0A4E2B1E0C6
:1000900001C01D92AD32B207E1F70E9410030C942B
:1000A0009F060C94000097FF07C09095809570956F
:1000B00061957F4F8F4F9F4F08951ABA8FE886B989
:1000C00080EE87B9369A08951F920F920FB60F925D
:1000D00011242F938F939F9385B190E090932501E6
:1000E000809324012FEF80E792E0215080409040E0
:1000F000E1F700C00000369A9F918F912F910F90E9
:100100000FBE0F901F90189588EF87BB88B387604C
:1001100088BB10922C0110922B0110922701109293
:1001200026010895CF938AE90E94AE0180E00E94E3
:1001300001028BE90E94F7010E941C02C82F0E9455
:10014000F9018C2F90E090932A0180932901CF919F
:10015000089580912B0190912C01892BB9F4809105
:10016000290190912A018B3091052CF410922701DE
:10017000109226010BC045971CF481E090E002C06C
:1001800082E090E0909327018093260180912601E0
:1001900090912701892B69F0809126019091270188
:1001A00063E070E0681B790B8FEF90E00E945803CA
:1001B00001C060E06CBF08950F931F93CF93DF934E
:1001C000CDB7DEB7C055D1090FB6F894DEBF0FBE6C
:1001D000CDBF0E94A0028091290190912A01209117
:1001E000240130912501821B930B092E000CAA0BD0
:1001F000BB0BB7FF07C0B095A095909581959F4F19
:10020000AF4FBF4F60E00597A105B10534F080E026
:100210000E94950280E091E04BC080E00E94950230
:1002200080912A018F93809129018F938DE091E035
:100230009F938F938E010F5F1F4F1F930F930E9409
:10024000A503C8010E94BA0261E080E00E94950205
:10025000809125018F93809124018F9386E191E015
:100260009F938F931F930F930E94A503C8010E9431
:10027000BA0261E08EE00E94950280912B0190917C
:100280002C010FB6F894DEBF0FBECDBF892B19F439
:100290008FE191E002C081E291E00E94BA02809178
:1002A0002601909127014AE0B8010E948003C8010D
:1002B0000E94BA02C05BDF4F0FB6F894DEBF0FBEDC
:1002C000CDBFDF91CF911F910F91089585B58460C7
:1002D00085BD14BC89B7806489BF789410922801C9
:1002E00008951F920F920FB60F9211242F933F93F0
:1002F0004F935F936F937F938F939F93AF93BF932E
:10030000EF93FF93809128018F5F80932801809164
:100310002801893060F084B58D3348F00E94920046
:100320000E94DC000E94A90014BC10922801FF91D9
:10033000EF91BF91AF919F918F917F916F915F915D
:100340004F913F912F910F900FBE0F901F901895D6
:100350001092B90088E48093B800089594EA9093CD
:10036000BC009091BC0097FFFCCF9091B900987FA2
:10037000983021F0903111F081E008958093BB0016
:1003800084E88093BC008091BC0087FFFCCF809103
:10039000B900887F883111F0803471F780E00895CA
:1003A00024EA34E844E92093BC009091BC0097FF14
:1003B000FCCF9091B900987F983011F0903199F767
:1003C0008093BB003093BC009091BC0097FFFCCFA2
:1003D0009091B900987F903211F0983539F440939C
:1003E000BC009091BC0094FDFCCFDDCF08950C942F
:1003F000AE0184E98093BC008091BC0084FDFCCFF9
:1004000008958093BB0084E88093BC008091BC0079
:1004100087FFFCCF9091B900987F81E0983209F472
:1004200080E0089584EC8093BC008091BC0087FF3D
:10043000FCCF8091BB00089584E88093BC0080913C
:10044000BC0087FFFCCF8091BB0008955A9A00C082
:100450005A980895CF93C82F662311F0589A01C077
:1004600058985998539A549A559A569A5E985D9806
:100470005C985B98C7FD5E9AC6FD5D9AC5FD5C9A67
:10048000C4FD5B9A0E9426025E985D985C985B981A
:10049000C3FD5E9AC2FD5D9AC1FD5C9AC0FD5B9A88
:1004A0000E9426025B9A5C9A5D9A5E9ACF910895AB
:1004B0005898599A53985498559856985A9A00C0F3
:1004C0004B9B02C080E101C080E04C9980624D9955
:1004D00080644E9980685A9800C05A9A00C04B991F
:1004E00081604C9982604D9984604E9988605A98D9
:1004F00008950E94580287FDFCCF88E090E00197A4
:10050000F1F70C945802CF93C82F0E94790260E053
:100510008C2FCF910C942A02CF93C82F0E9479027E
:1005200061E08C2FCF910C942A02611102C0805897
:1005300001C080540C9483020E94790290E00895D7
:1005400081E00C94830282E00C948302CF93C82F45
:100550000E947902CA3049F4803410F080E001C072
:1005600080E48058CF910C94830261E08C2FCF916E
:100570000C942A02CF93DF93EC018991882319F020
:100580000E94A602FACFDF91CF910895CF93DF9317
:10059000FC018491EF012196882321F00E94A6029C
:1005A000FE01F7CFDF91CF9108951F93CF93DF9393
:1005B000182F509A519A529A539A549A559A569A79
:1005C00080E09AEF0197F1F75C9A5B9A0E9426020D
:1005D00080E09EE40197F1F70E942602C0E0D1E09E
:1005E000CE010197F1F70E942602CE010197F1F7A3
:1005F0005B980E9426022197F1F7579A5F9888E24C
:100600000E94830288E00E9483020E94A00286E08A
:100610000E948302812FDF91CF911F910C9483025E
:100620008EE00E94D5020E945D000E94A8010E94F7
:1006300084000E94660183B7886483BF83B78162A8
:1006400083BF21E030E0B2990FC080912B019091DF
:100650002C01892B29F430932C0120932B0104C009
:1006600010922C0110922B01B1990FC0809126019C
:100670009091270102974CF48091260190912701D7
:1006800001969093270180932601B099DCCF809149
:1006900026019091270118161906ACF680912601C3
:1006A0009091270101979093270180932601CBCF4A
:1006B00097FB072E16F4009407D077FD09D00E940F
:1006C0006C0307FC05D03EF4909581959F4F0895EB
:1006D000709561957F4F0895AA1BBB1B51E107C020
:1006E000AA1FBB1FA617B70710F0A61BB70B881FC2
:1006F000991F5A95A9F780959095BC01CD01089551
:10070000BB274A3031F4992322F4BDE290958195BC
:100710009F4F0C948C03BB27FB015527AA27880FFA
:10072000991FAA1FA41710F0A41B83955051B9F765
:10073000A05DAA3308F0A95DA193009779F7B111E4
:10074000B1931192CB010C94BE05AEE0B0E0EBEAA0
:10075000F3E00C9476060D891E8986E08C831A835B
:1007600009838FEF9FE79E838D83AE01475E5F4FC6
:100770006F89788DCE0101960E94C703EF81F885BD
:10078000E00FF11F10822E96E4E00C949206ABE08D
:10079000B0E0EDECF3E00C9468066C017B018A019B
:1007A000FC0117821682838181FFCCC1CE010196A4
:1007B0003C01F6019381F70193FD859193FF8191AF
:1007C0007F01882309F4BAC1853239F493FD8591FC
:1007D00093FF81917F01853229F4B60190E00E9458
:1007E000CE05E7CF912C212C312CFFE1F315D8F069
:1007F0008B3279F038F4803279F08332A1F4232DF2
:1008000020611DC08D3261F0803369F4232D216099
:1008100016C0832D8260382EE32DE4603E2E2AC060
:10082000F32DF8601DC037FC2DC020ED280F2A30B5
:1008300040F08E32B9F436FC81C1232D2064322E73
:1008400019C036FE06C08AE0989E200D1124922E13
:1008500011C0EAE02E9E200D1124222EF32DF0620D
:100860003F2E08C08C3621F4832D8068382E02C0BC
:10087000883641F4F70193FD859193FF81917F01C3
:100880008111B3CF982F9F7D9554933028F40C5F3E
:100890001F4F9FE399830DC0833631F0833771F08A
:1008A000833509F059C021C0F801808189830E5F2A
:1008B0001F4F88248394912C530113C02801F2E028
:1008C0004F0E511CF801A080B18036FE03C0692D87
:1008D00070E002C06FEF7FEFC5010E94B3054C01CD
:1008E0008201F32DFF773F2E16C0280122E0420E31
:1008F000511CF801A080B18036FE03C0692D70E064
:1009000002C06FEF7FEFC5010E94A8054C01F32DD7
:10091000F0683F2E820133FC1BC0822D90E08816C8
:100920009906B0F4B60180E290E00E94CE052A94C8
:10093000F4CFF50137FC859137FE81915F01B60157
:1009400090E00E94CE0521102A9421E0821A91089D
:100950008114910471F7E8C0843611F0893641F5AD
:10096000F80137FE07C060817181828193810C5F3D
:100970001F4F08C060817181072E000C880B990BF6
:100980000E5F1F4FF32DFF763F2E97FF09C0909506
:100990008095709561957F4F8F4F9F4FF0683F2EE8
:1009A0002AE030E0A3010E940A06882E861845C07E
:1009B000853731F4232D2F7EB22E2AE030E025C07A
:1009C000932D997FB92E8F36C1F018F4883579F0C0
:1009D000B5C0803719F0883721F0B0C0E92FE06149
:1009E000BE2EB4FE0DC0FB2DF460BF2E09C034FE38
:1009F0000AC0292F2660B22E06C028E030E005C0CC
:100A000020E130E002C020E132E0F801B7FE07C08B
:100A100060817181828193810C5F1F4F06C060816C
:100A2000718180E090E00E5F1F4FA3010E940A06D3
:100A3000882E8618FB2DFF773F2E36FE0DC0232D06
:100A40002E7FA22E891458F434FE0BC032FC09C04C
:100A5000832D8E7EA82E05C0B82CA32C03C0B82CE5
:100A600001C0B92CA4FE0FC0FE01E80DF11D80816C
:100A7000803321F49A2D997EA92E09C0A2FE06C0CA
:100A8000B394B39404C08A2D867809F0B394A3FC80
:100A900011C0A0FE06C0B21488F4280C922C9B183A
:100AA0000EC0B21460F4B60180E290E00E94CE0560
:100AB000B394F7CFB21418F42B1802C0982C212C41
:100AC000A4FE10C0B60180E390E00E94CE05A2FE15
:100AD00017C0A1FC03C088E790E002C088E590E061
:100AE000B6010CC08A2D867859F0A1FE02C08BE2B7
:100AF00001C080E2A7FC8DE2B60190E00E94CE0525
:100B0000891438F4B60180E390E00E94CE059A94EF
:100B1000F7CF8A94F301E80DF11D8081B60190E0D2
:100B20000E94CE058110F5CF222009F442CEB601F5
:100B300080E290E00E94CE052A94F6CFF6018681ED
:100B4000978102C08FEF9FEF2B96E2E10C94840611
:100B5000FC010590615070400110D8F78095909588
:100B60008E0F9F1F0895FC0161507040019001108D
:100B7000D8F7809590958E0F9F1F0895DC01FC019A
:100B8000672F71917723E1F7329704C07C916D93C1
:100B900070836291AE17BF07C8F308950F931F9338
:100BA000CF93DF93FB01238121FD03C08FEF9FEFE4
:100BB0002CC022FF16C046815781248135814217FF
:100BC000530744F4A081B1819D012F5F3F4F3183D2
:100BD00020838C93268137812F5F3F4F3783268375
:100BE00014C08B01EC01FB010084F185E02D099517
:100BF000892BE1F6D80116968D919C911797019655
:100C000017969C938E931697CE01DF91CF911F91EB
:100C10000F910895FA01AA27283051F1203181F16E
:100C2000E8946F936E7F6E5F7F4F8F4F9F4FAF4FF4
:100C3000B1E03ED0B4E03CD0670F781F891F9A1F07
:100C4000A11D680F791F8A1F911DA11D6A0F711DBB
:100C5000811D911DA11D20D009F468943F912AE0C7
:100C6000269F11243019305D3193DEF6CF010895AF
:100C7000462F4770405D4193B3E00FD0C9F7F6CFE0
:100C8000462F4F70405D4A3318F0495D31FD4052A8
:100C9000419302D0A9F7EACFB4E0A695979587953E
:100CA00077956795BA95C9F700976105710508951D
:100CB0009B01AC010A2E06945795479537952795C9
:100CC000BA95C9F7620F731F841F951FA01D089561
:100CD0002F923F924F925F926F927F928F929F924C
:100CE000AF92BF92CF92DF92EF92FF920F931F933A
:100CF000CF93DF93CDB7DEB7CA1BDB0B0FB6F894EB
:100D0000DEBF0FBECDBF09942A88398848885F842A
:100D10006E847D848C849B84AA84B984C884DF809B
:100D2000EE80FD800C811B81AA81B981CE0FD11D7F
:100D30000FB6F894DEBF0FBECDBFED010895F89455
:020D4000FFCFE3
:100D420053797374656D204572726F720054433724
:100D5200343A202564004C4D33353A202564004155
:040D6200004D000040
:00000001FF
